{
	"_format": "hh-sol-artifact-1",
	"contractName": "Transactions",
	"sourceName": "contracts/Transactions.sol",
	"abi": [
		{
			"anonymous": false,
			"inputs": [
				{
					"indexed": false,
					"internalType": "address",
					"name": "from",
					"type": "address"
				},
				{
					"indexed": false,
					"internalType": "address",
					"name": "receiver",
					"type": "address"
				},
				{
					"indexed": false,
					"internalType": "uint256",
					"name": "amount",
					"type": "uint256"
				},
				{
					"indexed": false,
					"internalType": "string",
					"name": "message",
					"type": "string"
				},
				{
					"indexed": false,
					"internalType": "uint256",
					"name": "timestamp",
					"type": "uint256"
				},
				{
					"indexed": false,
					"internalType": "string",
					"name": "keyword",
					"type": "string"
				}
			],
			"name": "Transfer",
			"type": "event"
		},
		{
			"inputs": [
				{
					"internalType": "address payable",
					"name": "receiver",
					"type": "address"
				},
				{
					"internalType": "uint256",
					"name": "amount",
					"type": "uint256"
				},
				{
					"internalType": "string",
					"name": "message",
					"type": "string"
				},
				{
					"internalType": "string",
					"name": "keyword",
					"type": "string"
				}
			],
			"name": "addToBlockChain",
			"outputs": [],
			"stateMutability": "nonpayable",
			"type": "function"
		},
		{
			"inputs": [],
			"name": "getAllTransactions",
			"outputs": [
				{
					"components": [
						{
							"internalType": "address",
							"name": "sender",
							"type": "address"
						},
						{
							"internalType": "address",
							"name": "receiver",
							"type": "address"
						},
						{
							"internalType": "uint256",
							"name": "amount",
							"type": "uint256"
						},
						{
							"internalType": "string",
							"name": "message",
							"type": "string"
						},
						{
							"internalType": "uint256",
							"name": "timestamp",
							"type": "uint256"
						},
						{
							"internalType": "string",
							"name": "keyword",
							"type": "string"
						}
					],
					"internalType": "struct Transactions.TransferStruct[]",
					"name": "",
					"type": "tuple[]"
				}
			],
			"stateMutability": "view",
			"type": "function"
		},
		{
			"inputs": [],
			"name": "getTransactionCount",
			"outputs": [
				{
					"internalType": "uint256",
					"name": "",
					"type": "uint256"
				}
			],
			"stateMutability": "view",
			"type": "function"
		}
	],
	"bytecode": "0x608060405234801561001057600080fd5b506107e1806100206000396000f3fe608060405234801561001057600080fd5b50600436106100415760003560e01c806327506f53146100465780632e7700f014610064578063b2da096014610075575b600080fd5b61004e61008a565b60405161005b9190610502565b60405180910390f35b60005460405190815260200161005b565b610088610083366004610666565b610245565b005b60606001805480602002602001604051908101604052809291908181526020016000905b8282101561023c5760008481526020908190206040805160c0810182526006860290920180546001600160a01b0390811684526001820154169383019390935260028301549082015260038201805491929160608401919061010f906106f2565b80601f016020809104026020016040519081016040528092919081815260200182805461013b906106f2565b80156101885780601f1061015d57610100808354040283529160200191610188565b820191906000526020600020905b81548152906001019060200180831161016b57829003601f168201915b50505050508152602001600482015481526020016005820180546101ab906106f2565b80601f01602080910402602001604051908101604052809291908181526020018280546101d7906106f2565b80156102245780601f106101f957610100808354040283529160200191610224565b820191906000526020600020905b81548152906001019060200180831161020757829003601f168201915b505050505081525050815260200190600101906100ae565b50505050905090565b6001600080828254610257919061072d565b90915550506040805160c0810182523381526001600160a01b0386811660208084019182529383018781526060840187815242608086015260a08501879052600180548082018255600091909152855160069091027fb10e2d527612073b26eecdfd717e6a320cf44b4afac2b0732d9fcbe2b7fa0cf6810180549287166001600160a01b031993841617815594517fb10e2d527612073b26eecdfd717e6a320cf44b4afac2b0732d9fcbe2b7fa0cf7820180549190971692169190911790945590517fb10e2d527612073b26eecdfd717e6a320cf44b4afac2b0732d9fcbe2b7fa0cf884015551805193949193610375937fb10e2d527612073b26eecdfd717e6a320cf44b4afac2b0732d9fcbe2b7fa0cf90192919091019061041c565b506080820151600482015560a0820151805161039b91600584019160209091019061041c565b5050507f416cfa4330a4565f45c2fd2dd4826a83a37443aba2ce6f79477c7355afac35fa3385858542866040516103d796959493929190610753565b60405180910390a16040516001600160a01b0385169084156108fc029085906000818181858888f19350505050158015610415573d6000803e3d6000fd5b5050505050565b828054610428906106f2565b90600052602060002090601f01602090048101928261044a5760008555610490565b82601f1061046357805160ff1916838001178555610490565b82800160010185558215610490579182015b82811115610490578251825591602001919060010190610475565b5061049c9291506104a0565b5090565b5b8082111561049c57600081556001016104a1565b6000815180845260005b818110156104db576020818501810151868301820152016104bf565b818111156104ed576000602083870101525b50601f01601f19169290920160200192915050565b60006020808301818452808551808352604092508286019150828160051b87010184880160005b838110156105b557888303603f19018552815180516001600160a01b039081168552888201511688850152868101518785015260608082015160c08287018190529190610578838801826104b5565b92505050608080830151818701525060a080830151925085820381870152506105a181836104b5565b968901969450505090860190600101610529565b509098975050505050505050565b634e487b7160e01b600052604160045260246000fd5b600082601f8301126105ea57600080fd5b813567ffffffffffffffff80821115610605576106056105c3565b604051601f8301601f19908116603f0116810190828211818310171561062d5761062d6105c3565b8160405283815286602085880101111561064657600080fd5b836020870160208301376000602085830101528094505050505092915050565b6000806000806080858703121561067c57600080fd5b84356001600160a01b038116811461069357600080fd5b935060208501359250604085013567ffffffffffffffff808211156106b757600080fd5b6106c3888389016105d9565b935060608701359150808211156106d957600080fd5b506106e6878288016105d9565b91505092959194509250565b600181811c9082168061070657607f821691505b6020821081141561072757634e487b7160e01b600052602260045260246000fd5b50919050565b6000821982111561074e57634e487b7160e01b600052601160045260246000fd5b500190565b6001600160a01b038781168252861660208201526040810185905260c060608201819052600090610786908301866104b5565b84608084015282810360a084015261079e81856104b5565b999850505050505050505056fea264697066735822122013e6cb952573b32c9d6dfbc48a3a8f5cf86c027786afb2b387ac21e03f748c3764736f6c634300080b0033",
	"linkReferences": {},
	"deployedLinkReferences": {}
}